:10098300E5845408FFE58454804F4470F584E5847E
:100993005470FFBF70037F0022E4F51CF51BF51AAA
:1009A300F519E47FE07E2EFDFCAB1CAA1BA91AA857
:1009B30019C3120BE85017E51C2401F51CE4351B81
:1009C300F51BE4351AF51AE43519F51980D4E584D5
:1009D3005408FFE58454804F4476F584E5845470CD
:1009E3006470601CE584547024D0600E24E06007BA
:1009F30024F070097F01227F02227F03227F0022DD
:100A0300E5845408FFE58454804F4475F584E584F8
:100A130054706470601CE584547024D0600E24E02C
:100A2300600724F070097F04227F05227F06227F5E
:100A33000022E5845408FFE58454804F4473F58411
:100A4300E58454706470601CE584547024D0600E97
:100A530024E0600724F070097F07227F08227F09C2
:060A6300227F00227F004B
:010A6900226A
:10007E000000000000000000000000000000000072
:10008E000000003F00000000000000981800000073
:10009E000008304830400000000000000000000062
:1000AE000004041F041F04000040F840F840400004
:1000BE00000E113F100C0000003008FE887000008A
:1000CE000E110E0106180000001860807088700076
:1000DE00000F110F01010000F008C828F0080800F9
:1000EE000868700000000000000000000000000022
:1000FE000000000718204000000000C03008040077
:10010E00004020180700000000040830C000000066
:10011E000202010F01020200404080F080404000C8
:10012E000101010F01010100000000E000000000CC
:10013E000000000000000000021A1C000000000079
:10014E00010101010101010000000000000000009A
:10015E000000000000000000001818000000000061
:10016E000000000106384000000C30C00000000006
:10017E00000708101008070000E010080810E00043
:10018E000008081F00000000000808F8080800001A
:10019E00000C101010110E000018284888081800C6
:1001AE00000C101111120C000030080808887000A5
:1001BE00000102041F00000000C04048F84848003B
:1001CE00001F111212121100003008080808F0006A
:1001DE00000708111119000000F088080808F00047
:1001EE00001C1010131C1000000000F8000000008E
:1001FE00000E111111110E00007088080888700091
:10020E00000F101010090700000098888810E000F9
:10021E00000000030300000000000018180000009A
:10022E0000000002000000000000020C00000000B0
:10023E000001020408102000000080402010080079
:10024E0002020202020202004040404040404000D2
:10025E000020100804020100000810204080000059
:10026E00001C202020211E0000000018D8000000D5
:10027E000708131417080700E010E828C828D00054
:10028E0000000718070000000878C840C87808006A
:10029E00101F111111120C0008F8080808887000C0
:1002AE000708101010101C00E0100808081020009D
:1002BE00101F10101008070008F808080810E000BA
:1002CE00101F11111710080008F80808C8081000B0
:1002DE00101F11111710080008F80800C0000000C8
:1002EE0007081010101C0000E010080848704000AD
:1002FE00101F1101111F100008F8080008F808005F
:10030E000010101F10100000000808F80808000068
:10031E00000010101F10100006020202FC00000068
:10032E00101F11031418100008F808806818080030
:10033E00101F10000000000008F808080808180038
:10034E00101F1E011E1F100008F800F800F808000C
:10035E00101F1C03101F100008F8088070F8000012
:10036E000708101010080700E01008080810E00039
:10037E00101F111111110E0008F8080000000000E6
:10038E000708101010080700E01028281814E400C1
:10039E00101F1111110E000008F8088060180800D7
:1003AE00000E111110101C0000380808888870000B
:1003BE001810101F10101800000008F80800000098
:1003CE00101F1000101F100000F0080808F00000A9
:1003DE00101E1100111E10000000E018E0000000B9
:1003EE00101F001F001F10000080F800F880000092
:1003FE0010181601161810000818688068180800E2
:10040E00101C1300131C1000000008F80800000058
:10041E0000081010131C1000000838C80808180037
:10042E000000007F40404000000000FC0404040077
:10043E0000300C030000000000000080601C020071
:10044E00004040407F00000000040404FC00000057
:10045E0000002040402000000000000000000000CE
:10046E000000000000000000020202020202020070
:10047E0000404020000000000000000000000000CE
:10048E0000010202020100000030488888F80800CE
:10049E00101F01020202010000F808080808F0000F
:1004AE00000001020202010000E01008080810001E
:1004BE000001020202121F0000F008080810F808DE
:1004CE00000102020202010000F088888888900074
:1004DE000002020F12121800000808F808080000A7
:1004EE00000102020203020000AC525252920C00B2
:1004FE00101F01020202010008F808000008F808A7
:10050E0000021A1B00000000000808F8080800008E
:10051E00000000021A1B00000006020202FC00008E
:10052E00101F00000302020008F848806818080037
:10053E000010101F00000000000808F80808000056
:10054E00020302030201000008F800F800F8080098
:10055E00020301020202010008F808000008F80870
:10056E00000001020201000000E010080810E00087
:10057E00020301020202010002FE0A080808F0004E
:10058E00000102020202030000F008080812FE0237
:10059E0002020301020203000808F8080800000026
:1005AE000001020202030000009848484830000093
:1005BE000002020F02020000000000F00808000016
:1005CE00020300000002030000F008080810F808FB
:1005DE0002030200000203020000E01820C0000027
:1005EE00020300030003020000C038C038C0000040
:1005FE000002030002030200000818E8E0180800D9
:10060E0002030200000203020202E21C30C00000DC
:10061E00000302020203020000081868880818008E
:10062E00000000017E40000000000000FC040000FD
:10063E00000000FF00000000000000FE00000000AF
:10064E000000407E01000000000004FC00000000DD
:10065E0000608080402020C00000000000000000EC
:09005D000122000123000124002E
:090EF4007F01120FE47F0A7E0069
:100EFD00EF1FAA0670011E4A6015E4FCFDD3ED94A8
:0F0F0D0014EC6480948050E80DBD00010C80EE60
:010F1C0022B2
:100F1D005384F7E4FDAE07EF3392B5C2B4E4FC0C95
:100F2D00BC03FCD2B4E4FC0CBC03FCEE25E0FF0DCD
:060F3D00BD08E243840838
:010F4300228B
:100F4400438408E4FDAE07EF3392B5C2B4E4FC0C6D
:100F5400BC03FCD2B4E4FC0CBC03FCEE25E0FF0DA6
:060F6400BD08E25384F712
:010F6A002264
:0E0FE400AE05EFAF066003020F1D120F442290
:100E8100438480120EF953847F120EF94384801239
:100E91000EF97DE27F01120FE47DA37F01120FE4C1
:100EA1007DA07F01120FE47DC07F01120FE47D263A
:100EB1007F01120FE47F057E00120EFD7D2C120EC4
:100EC100F47D2E120EF47D2F120EF47D817F01121E
:100ED1000FE47D20120EF47DF87F01120FE47D01F5
:100EE1007F01120FE47F057E00120EFD7DAF7F01B1
:030EF100020FE409
:020F9200AB07AB
:100F9400ED44B0FF120F1DEB54F0C4540FFEEB549C
:0E0FA4000FFBEE4410FF120F1DAF03020F1DD6
:0A100B00120F927DFFE4FF020FE4D4
:100F6B007BB7AD037F01120FE47D107F01120FE4FD
:100F7B00E4FD7F01120FE4E4FAE4FF120F440ABA16
:060F8B0080F71BBBAFDC88
:010F9100223D
:020003008F1953
:10000500ED131313541FF51BB52319E519B5241466
:10001500ED5407FFF87480088002C313D8FC45220D
:10002500F51A8010ED5407FFF87480088002C31399
:10003500D8FCF51AE51B24F9FFE434FFFE120FFF87
:10004500AD07AF19120F92AD1AE4FF120FE4851A2E
:0700550022851B23851924FD
:01005C002281
:10066E00EF24E0F520EDC454F0FFC3743F9FF51E58
:0A067E00EB75F008A4F51FE4F51D6C
:10068800E51D25E0F521E51DC3940840030207FE9A
:1006980075F010E520A4247EF582E5F03400F5839A
:1006A800E582251DF582E43583F583E49330E70A76
:1006B800E51F251DFFAD1E12000375F010E520A4EF
:1006C800247EF582E5F03400F583E582251DF58268
:1006D800E43583F583E49330E60CE51F251DFFE53B
:1006E8001E14FD12000375F010E520A4247EF58287
:1006F800E5F03400F583E582251DF582E43583F5C0
:1007080083E49330E50DE51F251DFFE51E24FEFD5E
:1007180012000375F010E520A4247EF582E5F0347C
:1007280000F583E582251DF582E43583F583E4939E
:1007380030E40DE51F251DFFE51E24FDFD12000315
:1007480075F010E520A4247EF582E5F03400F583E9
:10075800E582251DF582E43583F583E49330E30DC6
:10076800E51F251DFFE51E24FCFD12000375F01092
:10077800E520A4247EF582E5F03400F583E58225A2
:100788001DF582E43583F583E49330E20DE51F25FA
:100798001DFFE51E24FBFD12000375F010E520A4E3
:1007A800247EF582E5F03400F583E582251DF58287
:1007B800E43583F583E49330E10DE51F251DFFE55E
:1007C8001E24FAFD12000375F010E520A4247EF51E
:1007D80082E5F03400F583E582251DF582E4358352
:1007E800F583E49320E003020976E51F251DFFE564
:1007F8001E24F902097275F010E520A4247EF58202
:10080800E5F03400F583E582251DF582E43583F5AE
:1008180083E49330E70FE51F251D24F8FFE51E2428
:10082800F8FD12000375F010E520A4247EF582E59A
:10083800F03400F583E582251DF582E43583F583E0
:10084800E49330E60FE51F251D24F8FFE51E24F785
:10085800FD12000375F010E520A4247EF582E5F072
:100868003400F583E582251DF582E43583F583E4BC
:100878009330E50FE51F251D24F8FFE51E24F6FD3E
:1008880012000375F010E520A4247EF582E5F0340B
:1008980000F583E582251DF582E43583F583E4932D
:1008A80030E40FE51F251D24F8FFE51E24F5FD1291
:1008B800000375F010E520A4247EF582E5F03400ED
:1008C800F583E582251DF582E43583F583E49330CD
:1008D800E30FE51F251D24F8FFE51E24F4FD120093
:1008E8000375F010E520A4247EF582E5F03400F5C8
:1008F80083E582251DF582E43583F583E49330E2B0
:100908000FE51F251D24F8FFE51E24F3FD12000343
:1009180075F010E520A4247EF582E5F03400F58317
:10092800E582251DF582E43583F583E49330E10FF4
:10093800E51F251D24F8FFE51E24F2FD12000375AE
:10094800F010E520A4247EF582E5F03400F583E577
:1009580082251DF582E43583F583E49330E00FE5C5
:0E0968001F251D24F8FFE51E24F1FD120003DB
:0C097600051DE51DC39410500302068807
:010982002252
:060D56008B088A09890ADE
:100D5C00E4F50DF50EF50FF510EDC454F0250CF57A
:100D6C0013D3943F507AED94035075E50C940F40D7
:100D7C0002806DE50E450D706FAB08AA09A90A1229
:100D8C000B32605C7E00E5102513FBEE350FFA7C10
:100D9C00007D10AF03FE120BB28F117C007D10AFE3
:100DAC0003AE02120BB28D12AB08AA09120B32FF62
:100DBC00AB12AD1112066E7401250AF50AE4350961
:100DCC00F5090510E5107002050F7E002513FFEEE6
:100DDC00350FFED3EF943FEE6480948040958000F5
:080DEC00750D00750E01808BEE
:010DF40022DC
:04006600022500006F
:0A10150075FFDE75FFAD75EF0422D4
:0D0FF200758E207591067592A07593FF22F3
:04006F0075E884228A
:07101F0075D48875D780220B
:0400760075D103221B
:0710260075A73075E34022BD
:100FB200E4FFFE75B1670FBF00010EBE0BF8BFB8AC
:090FC200F5E5B130E7FB75B2085A
:010FCB002203
:07102D0075A88075E703229E
:100FCC00121015120FF212006F12101F120076126F
:080FDC001026120FB202102DC5
:100BF900E4F514F515F516FDFCF517F518120FCCEB
:100C0900ED25E0FFEC33FE74002FF58274003EF50C
:100C190083E4F0A3F00DBD00010CBC03E3BDE8E0E3
:100C2900120E81120F6B7DA67F01120FE40518E5E4
:100C39001870020517D39410E51794274008E4F5B6
:100C490017F518120F6BC3E5189480E51794005037
:100C590037AE17AF187C007D14120B4B7C037DE86F
:100C6900120B5DED25E0FFEC33FE74002FF5827465
:100C7900003EF583E0FEA3E07806CEA2E713CE138B
:100C8900D8F8FDAF181200031209838F14E514B4C4
:100C9900019B120F6BE526452570047F0180027FB9
:080CA900007525008F268085EF
:100A6A0008000882090309840A020A7F0AF90B703E
:100A7A000BE40C530CBE0D240D850DE00E360E84CE
:100A8A000ECC0F0D0F470F790FA40FC60FE10FF30E
:100A9A000FFE0FFF0FFA0FEB0FD50FB60F8F0F6177
:100AAA000F2B0EEE0EA90E5E0E0C0DB40D560CF2A7
:100ABA000C890C1C0BAA0B350ABC0A4109C3094450
:100ACA0008C3084107BF073D06BC063D05BF0544EC
:100ADA0004CB045603E40377030E02AA024C01F482
:100AEA0001A20157011200D5009F0071004A002B94
:100AFA000015000600000002000D001F003A005C0D
:100B0A00008700B900F30134017C01CA0220027B8C
:100B1A0002DC034203AD041C04900507058105FEAF
:080B2A00067C06FD077E0800B1
:04006A000227000069
:0300730002103444
:0410340053917F3223
:03007B00020CB1C3
:100CB100C0E0C083C082C0D075D000C006C007C2EA
:100CC100ED0528E52870020527E52645256035D381
:100CD100E52894DBE5276480948540067527007537
:100CE1002800E52825E0FFE52733FE74002FF58273
:100CF10074003EF583E5BFF0A3E5BEF085BED28565
:100D0100BFD38044D3E52894DBE5276480948550E4
:100D11001AE52825E0FFE52733FE74002FF58274DC
:100D2100003EF583E5BFF0A3E5BEF0E52825E0FF31
:100D3100E52733FE74002FF58274003EF583E0FE53
:100D4100A3E0F5D2EEFF8FD3D007D006D0D0D0826A
:050D5100D083D0E03268
:03000000020DF5F9
:0C0DF500787FE4F6D8FD758128020E3CE2
:100B3200BB010689828A83E0225002E722BBFE02C1
:090B4200E32289828A83E49322F4
:100B4B00EF8DF0A4A8F0CF8CF0A428CE8DF0A42EBE
:020B5B00FE2278
:100B5D00BC000BBE0029EF8DF084FFADF022E4CC7C
:100B6D00F875F008EF2FFFEE33FEEC33FCEE9DEC45
:100B7D00984005FCEE9DFE0FD5F0E9E4CEFD22ED8B
:100B8D00F8F5F0EE8420D21CFEADF075F008EF2FD5
:100B9D00FFED33FD4007985006D5F0F222C398FDC6
:050BAD000FD5F0EA2263
:100BB200C2D5EC30E709B2D5E4C39DFDE49CFCEE5E
:100BC20030E715B2D5E4C39FFFE49EFE120B5DC36E
:100BD200E49DFDE49CFC8003120B5D30D507C3E469
:060BE2009FFFE49EFE22CD
:100BE800EB9FF5F0EA9E42F0E99D42F0E89C45F063
:010BF80022DA
:0C0FFF00EE30E707C3E49FFFE49EFE22F3
:100E0100020BF9E493A3F8E493A34003F68001F203
:100E110008DFF48029E493A3F85407240CC8C333F2
:100E2100C4540F4420C8834004F456800146F6DFC1
:100E3100E4800B010204081020408090005DE47EF4
:100E4100019360BCA3FF543F30E509541FFEE493B6
:100E5100A360010ECF54C025E060A840B8E493A37D
:100E6100FAE493A3F8E493A3C8C582C8CAC583CAA8
:100E7100F0A3C8C582C8CAC583CADFE9DEE780BE60
:01006E000091
:00000001FF
