:100A7600E5845408FFE58454804F4470F584E5848A
:100A86005470FFBF70037F0022E4F51EF51DF51CB0
:100A9600F51BE47FE07E2EFDFCAB1EAA1DA91CA85B
:100AA6001BC3120A395017E51E2401F51EE4351D35
:100AB600F51DE4351CF51CE4351BF51B80D4E584D7
:100AC6005408FFE58454804F4476F584E5845470D9
:100AD6006470601CE584547024D0600E24E06007C6
:100AE60024F070097F01227F02227F03227F0022E9
:100AF600E5845408FFE58454804F4475F584E58405
:100B060054706470601CE584547024D0600E24E038
:100B1600600724F070097F04227F05227F06227F6A
:100B26000022E5845408FFE58454804F4473F5841D
:100B3600E58454706470601CE584547024D0600EA3
:100B460024E0600724F070097F07227F08227F09CE
:060B5600227F00227F0057
:010B5C002276
:10007E000000000000000000000000000000000072
:10008E000000003F00000000000000981800000073
:10009E000008304830400000000000000000000062
:1000AE000004041F041F04000040F840F840400004
:1000BE00000E113F100C0000003008FE887000008A
:1000CE000E110E0106180000001860807088700076
:1000DE00000F110F01010000F008C828F0080800F9
:1000EE000868700000000000000000000000000022
:1000FE000000000718204000000000C03008040077
:10010E00004020180700000000040830C000000066
:10011E000202010F01020200404080F080404000C8
:10012E000101010F01010100000000E000000000CC
:10013E000000000000000000021A1C000000000079
:10014E00010101010101010000000000000000009A
:10015E000000000000000000001818000000000061
:10016E000000000106384000000C30C00000000006
:10017E00000708101008070000E010080810E00043
:10018E000008081F00000000000808F8080800001A
:10019E00000C101010110E000018284888081800C6
:1001AE00000C101111120C000030080808887000A5
:1001BE00000102041F00000000C04048F84848003B
:1001CE00001F111212121100003008080808F0006A
:1001DE00000708111119000000F088080808F00047
:1001EE00001C1010131C1000000000F8000000008E
:1001FE00000E111111110E00007088080888700091
:10020E00000F101010090700000098888810E000F9
:10021E00000000030300000000000018180000009A
:10022E0000000002000000000000020C00000000B0
:10023E000001020408102000000080402010080079
:10024E0002020202020202004040404040404000D2
:10025E000020100804020100000810204080000059
:10026E00001C202020211E0000000018D8000000D5
:10027E000708131417080700E010E828C828D00054
:10028E0000000718070000000878C840C87808006A
:10029E00101F111111120C0008F8080808887000C0
:1002AE000708101010101C00E0100808081020009D
:1002BE00101F10101008070008F808080810E000BA
:1002CE00101F11111710080008F80808C8081000B0
:1002DE00101F11111710080008F80800C0000000C8
:1002EE0007081010101C0000E010080848704000AD
:1002FE00101F1101111F100008F8080008F808005F
:10030E000010101F10100000000808F80808000068
:10031E00000010101F10100006020202FC00000068
:10032E00101F11031418100008F808806818080030
:10033E00101F10000000000008F808080808180038
:10034E00101F1E011E1F100008F800F800F808000C
:10035E00101F1C03101F100008F8088070F8000012
:10036E000708101010080700E01008080810E00039
:10037E00101F111111110E0008F8080000000000E6
:10038E000708101010080700E01028281814E400C1
:10039E00101F1111110E000008F8088060180800D7
:1003AE00000E111110101C0000380808888870000B
:1003BE001810101F10101800000008F80800000098
:1003CE00101F1000101F100000F0080808F00000A9
:1003DE00101E1100111E10000000E018E0000000B9
:1003EE00101F001F001F10000080F800F880000092
:1003FE0010181601161810000818688068180800E2
:10040E00101C1300131C1000000008F80800000058
:10041E0000081010131C1000000838C80808180037
:10042E000000007F40404000000000FC0404040077
:10043E0000300C030000000000000080601C020071
:10044E00004040407F00000000040404FC00000057
:10045E0000002040402000000000000000000000CE
:10046E000000000000000000020202020202020070
:10047E0000404020000000000000000000000000CE
:10048E0000010202020100000030488888F80800CE
:10049E00101F01020202010000F808080808F0000F
:1004AE00000001020202010000E01008080810001E
:1004BE000001020202121F0000F008080810F808DE
:1004CE00000102020202010000F088888888900074
:1004DE000002020F12121800000808F808080000A7
:1004EE00000102020203020000AC525252920C00B2
:1004FE00101F01020202010008F808000008F808A7
:10050E0000021A1B00000000000808F8080800008E
:10051E00000000021A1B00000006020202FC00008E
:10052E00101F00000302020008F848806818080037
:10053E000010101F00000000000808F80808000056
:10054E00020302030201000008F800F800F8080098
:10055E00020301020202010008F808000008F80870
:10056E00000001020201000000E010080810E00087
:10057E00020301020202010002FE0A080808F0004E
:10058E00000102020202030000F008080812FE0237
:10059E0002020301020203000808F8080800000026
:1005AE000001020202030000009848484830000093
:1005BE000002020F02020000000000F00808000016
:1005CE00020300000002030000F008080810F808FB
:1005DE0002030200000203020000E01820C0000027
:1005EE00020300030003020000C038C038C0000040
:1005FE000002030002030200000818E8E0180800D9
:10060E0002030200000203020202E21C30C00000DC
:10061E00000302020203020000081868880818008E
:10062E00000000017E40000000000000FC040000FD
:10063E00000000FF00000000000000FE00000000AF
:10064E000000407E01000000000004FC00000000DD
:10065E0000608080402020C00000000000000000EC
:09005D00012A00012B00012C0016
:090F25007F011210157F0A7E0005
:100F2E00EF1FAA0670011E4A6015E4FCFDD3ED9476
:0F0F3E0014EC6480948050E80DBD00010C80EE2F
:010F4D002281
:100F4E005384F7E4FDAE07EF3392B5C2B4E4FC0C64
:100F5E00BC03FCD2B4E4FC0CBC03FCEE25E0FF0D9C
:060F6E00BD08E243840807
:010F7400225A
:100F7500438408E4FDAE07EF3392B5C2B4E4FC0C3C
:100F8500BC03FCD2B4E4FC0CBC03FCEE25E0FF0D75
:060F9500BD08E25384F7E1
:010F9B002233
:0E101500AE05EFAF066003020F4E120F7522FC
:100EB200438480120F2A53847F120F2A43848012A4
:100EC2000F2A7DE27F011210157DA37F01121015FA
:100ED2007DA17F011210157DC07F011210157D26A4
:100EE2007F011210157F057E00120F2E7D2C120F2E
:100EF200257D2E120F257D2F120F257D817F011258
:100F020010157D20120F257DF87F011210157D012D
:100F12007F011210157F057E00120F2E7DAF7F011B
:030F2200021015A5
:020FC300AB077A
:100FC500ED44B0FF120F4EEB54F0C4540FFEEB543A
:0E0FD5000FFBEE4410FF120F4EAF03020F4E43
:0A103C00120FC37DFFE4FF02101540
:100F9C007BB7AD037F011210157D107F0112101568
:100FAC00E4FD7F01121015E4FAE4FF120F750ABA82
:060FBC0080F71BBBAFDC57
:010FC200220C
:020003008F1B51
:10000500ED131313541FF51DB52B19E51BB52C1452
:10001500ED5407FFF87480088002C313D8FC452A05
:10002500F51C8010ED5407FFF87480088002C31397
:10003500D8FCF51CE51D24F9FFE434FFFE12103051
:10004500AD07AF1B120FC3AD1CE4FF121015851CC5
:070055002A851D2B851B2CE1
:01005C002281
:10066E00EF24E0F524EDC454F0FFC3743F9FF52250
:0A067E00EB75F008A4F523E4F52164
:10068800E52125E0F525E521C3940840030207FE8E
:1006980075F010E524A4247EF582E5F03400F58396
:1006A800E5822521F582E43583F583E49330E70A72
:1006B800E5232521FFAD2212000375F010E524A4DF
:1006C800247EF582E5F03400F583E5822521F58264
:1006D800E43583F583E49330E60CE5232521FFE533
:1006E8002214FD12000375F010E524A4247EF5827F
:1006F800E5F03400F583E5822521F582E43583F5BC
:1007080083E49330E50DE5232521FFE52224FEFD52
:1007180012000375F010E524A4247EF582E5F03478
:1007280000F583E5822521F582E43583F583E4939A
:1007380030E40DE5232521FFE52224FDFD12000309
:1007480075F010E524A4247EF582E5F03400F583E5
:10075800E5822521F582E43583F583E49330E30DC2
:10076800E5232521FFE52224FCFD12000375F01086
:10077800E524A4247EF582E5F03400F583E582259E
:1007880021F582E43583F583E49330E20DE52325F2
:1007980021FFE52224FBFD12000375F010E524A4D7
:1007A800247EF582E5F03400F583E5822521F58283
:1007B800E43583F583E49330E10DE5232521FFE556
:1007C8002224FAFD12000375F010E524A4247EF516
:1007D80082E5F03400F583E5822521F582E435834E
:1007E800F583E49320E003020976E5232521FFE55C
:1007F8002224F902097275F010E524A4247EF582FA
:10080800E5F03400F583E5822521F582E43583F5AA
:1008180083E49330E70FE523252124F8FFE522241C
:10082800F8FD12000375F010E524A4247EF582E596
:10083800F03400F583E5822521F582E43583F583DC
:10084800E49330E60FE523252124F8FFE52224F779
:10085800FD12000375F010E524A4247EF582E5F06E
:100868003400F583E5822521F582E43583F583E4B8
:100878009330E50FE523252124F8FFE52224F6FD32
:1008880012000375F010E524A4247EF582E5F03407
:1008980000F583E5822521F582E43583F583E49329
:1008A80030E40FE523252124F8FFE52224F5FD1285
:1008B800000375F010E524A4247EF582E5F03400E9
:1008C800F583E5822521F582E43583F583E49330C9
:1008D800E30FE523252124F8FFE52224F4FD120087
:1008E8000375F010E524A4247EF582E5F03400F5C4
:1008F80083E5822521F582E43583F583E49330E2AC
:100908000FE523252124F8FFE52224F3FD12000337
:1009180075F010E524A4247EF582E5F03400F58313
:10092800E5822521F582E43583F583E49330E10FF0
:10093800E523252124F8FFE52224F2FD12000375A2
:10094800F010E524A4247EF582E5F03400F583E573
:10095800822521F582E43583F583E49330E00FE5C1
:0E09680023252124F8FFE52224F1FD120003CF
:0C0976000521E521C394105003020688FF
:010982002252
:060CED008B088A09890A48
:100CF300E4F50DF50EF50FF510EDC454F0250CF5E4
:100D030013D3943F507AED94035075E50C940F4040
:100D130002806DE50E450D706FAB08AA09A90A1292
:100D23000983605C7E00E5102513FBEE350FFA7C2A
:100D3300007D10AF03FE120A038F117C007D10AFFC
:100D430003AE02120A038D12AB08AA09120983FF2C
:100D5300AB12AD1112066E7401250AF50AE43509CA
:100D6300F5090510E5107002050F7E002513FFEE4F
:100D7300350FFED3EF943FEE64809480409580005E
:080D8300750D00750E01808B57
:010D8B002245
:02006600C18057
:0A10460075FFDE75FFAD75EF0422A3
:0D102300758E207591067592A07593FF22C1
:0400760075E8842283
:0710500075D48875D78022DA
:0410650075D103221C
:0710570075A73075E340228C
:100FE300E4FFFE75B1670FBF00010EBE0BF8BFB87B
:090FF300F5E5B130E7FB75B20829
:010FFC0022D2
:07105E0075A88075E703226D
:100FFD0012104612102312007612105012106512A4
:08100D001057120FE302105E00
:100D8C00E4F514F515F516F517F518F519F51A120D
:100D9C000FFD7E0B7FB87D007B017A007900120A73
:100DAC004A120EB2120F9C7DA67F01121015051A65
:100DBC00E51A70020519D39410E51994274008E43C
:100DCC00F519F51A120F9CC3E51A9480E5199400D5
:100DDC005037AE19AF1A7C007D1412099C7C037D30
:100DEC00E81209AEED25E0FFEC33FE74002FF5821E
:100DFC0074003EF583E0FEA3E07806CEA2E713CEA6
:100E0C0013D8F8FDAF1A120003120A768F14E514EA
:0A0E1C00B4019B120F9CB2008094F9
:100C250008000882090309840A020A7F0AF90B7081
:100C35000BE40C530CBE0D240D850DE00E360E8411
:100C45000ECC0F0D0F470F790FA40FC60FE10FF351
:100C55000FFE0FFF0FFA0FEB0FD50FB60F8F0F61BA
:100C65000F2B0EEE0EA90E5E0E0C0DB40D560CF2EA
:100C75000C890C1C0BAA0B350ABC0A4109C3094493
:100C850008C3084107BF073D06BC063D05BF05442F
:100C950004CB045603E40377030E02AA024C01F4C5
:100CA50001A20157011200D5009F0071004A002BD7
:100CB5000015000600000002000D001F003A005C50
:100CC500008700B900F30134017C01CA0220027BD0
:100CD50002DC034203AD041C04900507058105FEF3
:080CE500067C06FD077E0800F5
:0800680002280000022600003E
:030073000210690F
:0410690053917F32EE
:03007B00020B5D18
:100B5D00C0E0C0F0C083C082C0D075D000C000C05E
:100B6D0004C005C006C007C2ED300036E52725E0FC
:100B7D00FFE52633FE74002FF58274003EF583E504
:100B8D00BFF0A3E5BEF085BED285BFD3E527240116
:100B9D00FFE43526FE7C057DDC1209AE8C268D2703
:100BAD008061C3E52794DCE52694055024E52725CF
:100BBD00E0FFE52633FE74002FF58274003EF583C9
:100BCD00E5BFF0A3E5BEF00527E5277002052680F9
:100BDD0032E5292401FFE43528FE7C057DDC120970
:100BED00AE8C288D29E52925E0FFE52833FE74001C
:100BFD002FF58274003EF583E0FEA3E0F5D2EEFF03
:100C0D00EFF5D3D007D006D005D004D000D0D0D08A
:080C1D0082D083D0F0D0E03258
:03000000020E26C7
:0C0E2600787FE4F6D8FD75812C020E6D7B
:10098300BB010689828A83E0225002E722BBFE0272
:09099300E32289828A83E49322A5
:10099C00EF8DF0A4A8F0CF8CF0A428CE8DF0A42E6F
:0209AC00FE2229
:1009AE00BC000BBE0029EF8DF084FFADF022E4CC2D
:1009BE00F875F008EF2FFFEE33FEEC33FCEE9DECF6
:1009CE00984005FCEE9DFE0FD5F0E9E4CEFD22ED3C
:1009DE00F8F5F0EE8420D21CFEADF075F008EF2F86
:1009EE00FFED33FD4007985006D5F0F222C398FD77
:0509FE000FD5F0EA2214
:100A0300C2D5EC30E709B2D5E4C39DFDE49CFCEE0E
:100A130030E715B2D5E4C39FFFE49EFE1209AEC3CF
:100A2300E49DFDE49CFC80031209AE30D507C3E4CA
:060A33009FFFE49EFE227D
:100A3900EB9FF5F0EA9E42F0E99D42F0E89C45F013
:010A4900228A
:0C103000EE30E707C3E49FFFE49EFE22C1
:100A4A00EF4E6012EF60010EEDBB010B89828A83C3
:100A5A00F0A3DFFCDEFA2289F05007F709DFFCA9D0
:0C0A6A00F022BBFEFCF309DFFCA9F02227
:100E3200020D8CE493A3F8E493A34003F68001F23D
:100E420008DFF48029E493A3F85407240CC8C333C1
:100E5200C4540F4420C8834004F456800146F6DF90
:100E6200E4800B010204081020408090005DE47EC3
:100E7200019360BCA3FF543F30E509541FFEE49385
:100E8200A360010ECF54C025E060A840B8E493A34C
:100E9200FAE493A3F8E493A3C8C582C8CAC583CA77
:100EA200F0A3C8C582C8CAC583CADFE9DEE780BE2F
:01007000008F
:00000001FF
